{
  "abi": [
    {
      "inputs": [
        {
          "internalType": "address",
          "name": "_axiomQueryAddress",
          "type": "address"
        }
      ],
      "stateMutability": "nonpayable",
      "type": "constructor"
    },
    {
      "anonymous": false,
      "inputs": [
        {
          "indexed": true,
          "internalType": "address",
          "name": "previousOwner",
          "type": "address"
        },
        {
          "indexed": true,
          "internalType": "address",
          "name": "newOwner",
          "type": "address"
        }
      ],
      "name": "OwnershipTransferred",
      "type": "event"
    },
    {
      "anonymous": false,
      "inputs": [
        {
          "indexed": false,
          "internalType": "address",
          "name": "pairAddress",
          "type": "address"
        },
        {
          "indexed": false,
          "internalType": "uint32",
          "name": "startBlockNumber",
          "type": "uint32"
        },
        {
          "indexed": false,
          "internalType": "uint32",
          "name": "endBlockNumber",
          "type": "uint32"
        },
        {
          "indexed": false,
          "internalType": "uint256",
          "name": "twapPri",
          "type": "uint256"
        }
      ],
      "name": "UniswapV2TwapProof",
      "type": "event"
    },
    {
      "anonymous": false,
      "inputs": [
        {
          "indexed": false,
          "internalType": "address",
          "name": "newAddress",
          "type": "address"
        }
      ],
      "name": "UpdateAxiomAddress",
      "type": "event"
    },
    {
      "inputs": [],
      "name": "axiomQueryAddress",
      "outputs": [
        {
          "internalType": "address",
          "name": "",
          "type": "address"
        }
      ],
      "stateMutability": "view",
      "type": "function"
    },
    {
      "inputs": [
        {
          "components": [
            {
              "internalType": "uint32",
              "name": "blockNumber",
              "type": "uint32"
            },
            {
              "internalType": "address",
              "name": "addr",
              "type": "address"
            },
            {
              "internalType": "uint256",
              "name": "slot",
              "type": "uint256"
            },
            {
              "internalType": "uint256",
              "name": "value",
              "type": "uint256"
            },
            {
              "internalType": "uint32",
              "name": "leafIdx",
              "type": "uint32"
            },
            {
              "internalType": "bytes32[6]",
              "name": "proof",
              "type": "bytes32[6]"
            }
          ],
          "internalType": "struct IAxiomV1Query.StorageResponse[]",
          "name": "storageProofs",
          "type": "tuple[]"
        },
        {
          "components": [
            {
              "internalType": "uint32",
              "name": "blockNumber",
              "type": "uint32"
            },
            {
              "internalType": "bytes32",
              "name": "blockHash",
              "type": "bytes32"
            },
            {
              "internalType": "uint32",
              "name": "leafIdx",
              "type": "uint32"
            },
            {
              "internalType": "bytes32[6]",
              "name": "proof",
              "type": "bytes32[6]"
            }
          ],
          "internalType": "struct IAxiomV1Query.BlockResponse[]",
          "name": "blockProofs",
          "type": "tuple[]"
        },
        {
          "internalType": "bytes[2]",
          "name": "rlpEncodedHeaders",
          "type": "bytes[2]"
        },
        {
          "internalType": "bytes32[3]",
          "name": "keccakResponses",
          "type": "bytes32[3]"
        }
      ],
      "name": "calculateUniswapV2Twap",
      "outputs": [
        {
          "internalType": "uint256",
          "name": "",
          "type": "uint256"
        }
      ],
      "stateMutability": "nonpayable",
      "type": "function"
    },
    {
      "inputs": [],
      "name": "owner",
      "outputs": [
        {
          "internalType": "address",
          "name": "",
          "type": "address"
        }
      ],
      "stateMutability": "view",
      "type": "function"
    },
    {
      "inputs": [],
      "name": "renounceOwnership",
      "outputs": [],
      "stateMutability": "nonpayable",
      "type": "function"
    },
    {
      "inputs": [
        {
          "internalType": "address",
          "name": "newOwner",
          "type": "address"
        }
      ],
      "name": "transferOwnership",
      "outputs": [],
      "stateMutability": "nonpayable",
      "type": "function"
    },
    {
      "inputs": [
        {
          "internalType": "bytes28",
          "name": "",
          "type": "bytes28"
        }
      ],
      "name": "twapPris",
      "outputs": [
        {
          "internalType": "uint256",
          "name": "",
          "type": "uint256"
        }
      ],
      "stateMutability": "view",
      "type": "function"
    },
    {
      "inputs": [
        {
          "internalType": "address",
          "name": "_axiomQueryAddress",
          "type": "address"
        }
      ],
      "name": "updateAxiomQueryAddress",
      "outputs": [],
      "stateMutability": "nonpayable",
      "type": "function"
    }
  ],
  "bytecode": {
    "object": "0x6080346100a757601f61148838819003918201601f19168301916001600160401b038311848410176100ac578084926020946040528339810103126100a757516001600160a01b0390818116908190036100a75760005460018060a01b0319903382821617600055604051933391167f8be0079c531659141344cd1fd0a4f28419497f9722a3daafe3b4186f6b6457e0600080a360015416176001556113c590816100c38239f35b600080fd5b634e487b7160e01b600052604160045260246000fdfe6080604052600436101561001257600080fd5b6000803560e01c9081633ba7c59a1461008a575080633cc7922114610085578063715018a6146100805780638da5cb5b1461007b578063b992b00d14610076578063bdd1b118146100715763f2fde38b1461006c57600080fd5b6102f1565b6102b6565b610209565b610194565b610139565b6100c9565b346100b057806003193601126100b0576001546001600160a01b03166080908152602090f35b80fd5b6001600160a01b038116036100c457565b600080fd5b346100c45760203660031901126100c4577f4f58839d9075210378ad47340fc23fab81e060f9fb13f00151841b25bc23d4b76020600435610109816100b3565b6101116103b8565b600180546001600160a01b0319166001600160a01b03929092169182179055604051908152a1005b346100c4576000806003193601126100b0576101536103b8565b80546001600160a01b03198116825581906001600160a01b03167f8be0079c531659141344cd1fd0a4f28419497f9722a3daafe3b4186f6b6457e08280a380f35b346100c45760003660031901126100c4576000546040516001600160a01b039091168152602090f35b9181601f840112156100c45782359167ffffffffffffffff83116100c45760208085019461012085020101116100c457565b919060408301116100c457565b9060649160c4116100c457565b346100c45760c03660031901126100c45760043567ffffffffffffffff8082116100c457366023830112156100c4578160040135918183116100c4573660246101608502830101116100c4576024358281116100c45761026d9036906004016101bd565b6044949194359384116100c4576102b29461028f6102a29536906004016101ef565b92602461029b366101fc565b9501610a66565b6040519081529081906020820190565b0390f35b346100c45760203660031901126100c45760043563ffffffff1981168091036100c45760005260026020526020604060002054604051908152f35b346100c45760203660031901126100c45760043561030e816100b3565b6103166103b8565b6001600160a01b03908116801561036457600080546001600160a01b03198116831782559092167f8be0079c531659141344cd1fd0a4f28419497f9722a3daafe3b4186f6b6457e08380a380f35b60405162461bcd60e51b815260206004820152602660248201527f4f776e61626c653a206e6577206f776e657220697320746865207a65726f206160448201526564647265737360d01b6064820152608490fd5b6000546001600160a01b031633036103cc57565b606460405162461bcd60e51b815260206004820152602060248201527f4f776e61626c653a2063616c6c6572206973206e6f7420746865206f776e65726044820152fd5b634e487b7160e01b600052603260045260246000fd5b901561042f5790565b610410565b906002101561042f576102c00190565b906001101561042f576101600190565b906003101561042f576104200190565b1561046b57565b60405162461bcd60e51b81526020600482015260146024820152731a5b9d985b1a59081c995cd95c9d99481cdb1bdd60621b6044820152606490fd5b156104ae57565b60405162461bcd60e51b815260206004820152601d60248201527f696e76616c69642063756d756c617469766520707269636520736c6f740000006044820152606490fd5b63ffffffff8116036100c457565b3561050b816104f3565b90565b906001101561042f576101200190565b1561052557565b60405162461bcd60e51b815260206004820152601960248201527f696e636f6e73697374656e7420626c6f636b206e756d626572000000000000006044820152606490fd5b3561050b816100b3565b1561057b57565b60405162461bcd60e51b815260206004820152601960248201527f696e636f6e73697374656e7420706169722061646472657373000000000000006044820152606490fd5b634e487b7160e01b600052604160045260246000fd5b6040810190811067ffffffffffffffff8211176105f257604052565b6105c0565b90601f8019910116810190811067ffffffffffffffff8211176105f257604052565b60405190610626826105d6565b565b67ffffffffffffffff81116105f25760051b60200190565b6040516020810181811067ffffffffffffffff8211176105f2576040526000815290565b908160209103126100c4575180151581036100c45790565b6000915b6006831061068d57505050565b600190825181526020809101920192019190610680565b90815180825260208080930193019160005b8281106106c4575050505090565b90919293826101a0600192610753885163ffffffff8151168352858060a01b03858201511685840152604067ffffffffffffffff818301511690840152610720606080830151908501906bffffffffffffffffffffffff169052565b6080818101519084015260a0808201519084015260c08082015163ffffffff169084015260e0809101519083019061067c565b019501939291016106b6565b9190808252602080920192916000905b82821061077d575050505090565b90919293600190853561078f816104f3565b63ffffffff8091168252838701356107a6816100b3565b838060a01b0316848301526040808801359083015260608088013590830152608090818801356107d5816104f3565b169082015260c060a08088019083013761016090810195019392019061076f565b96949190989795939860c090818901908952602092838a0152604094858a01528360609183838c01525260e089019a946000935b85851061085c57505050505050508561084e918561050b97980360808701526106a4565b9260a081850391015261075f565b9091929394959b60019085858f8035610874816104f3565b63ffffffff8091168552868201358786015287820135610893816104f3565b168785015201868301376101209081019d019695019392919061082a565b6040513d6000823e3d90fd5b156108c457565b60405162461bcd60e51b815260206004820152600e60248201526d696e76616c69642070726f6f667360901b6044820152606490fd5b803590601e19813603018212156100c457019081359167ffffffffffffffff83116100c45760200182360381136100c4579190565b602081013590601e19813603018212156100c457019081359167ffffffffffffffff83116100c45760200182360381136100c4579190565b92919267ffffffffffffffff82116105f25760405191610991601f8201601f1916602001846105f7565b8294818452818301116100c4578281602093846000960137010152565b634e487b7160e01b600052601160045260246000fd5b60bf198101919082116109d357565b6109ae565b607f198101919082116109d357565b60f6198101919082116109d357565b60b6198101919082116109d357565b919082039182116109d357565b634e487b7160e01b600052601260045260246000fd5b8115610a32570490565b610a12565b906020825192015163ffffffff199081811693601c8110610a5757505050565b601c0360031b82901b16169150565b80959484604096600888610a7a8787610426565b01351480610f5b575b610a8c90610464565b600a88610a998787610444565b01351480610f40575b610aab906104a7565b610b2b610ac0610abb8787610426565b610501565b610afd8689610ade610ad5610abb8c85610444565b63ffffffff1690565b93878b63ffffffff9687809416149485610f12575b505050505061051e565b610b0a610abb8888610434565b81610b1b610ad5610abb8b8b610454565b9116149081610ee9575b5061051e565b856020948592610b86610b4885610b428b86610426565b0161056a565b89610b66610b5a88610b428489610444565b6001600160a01b031690565b6001600160a01b03928316149182610ebe575b82610e92575b5050610574565b8a610bd189610ba2610b5a610b5a60015460018060a01b031690565b94610bab610640565b845163190e7a7560e21b8152998a9889978897810135908c810135903560048a016107f6565b03915afa8015610e8d57610bed91600091610e60575b506108bd565b610bf78585610426565b610c0090610501565b82610c0b8787610426565b0135610c16836108fa565b3690610c2192610967565b90610c2b92610fef565b90610c36868661050e565b610c3f90610501565b9083610c4b888861050e565b013590610c579061092f565b3690610c6292610967565b90610c6c92610fef565b83610c77818a610426565b60600135610c9b908060901c9163ffffffff6001600160701b038360201c16921690565b9091848c610ca98682610434565b60600135610ccd908060901c9163ffffffff6001600160701b038360201c16921690565b94919690958a610cdd8a86610444565b6060013592610ceb94611367565b95610cf591610454565b6060013592610d0394611367565b90610d0d91610a05565b91610d1791610a05565b610d2091610a28565b95828783610d2f829685610426565b01610d399061056a565b610d438888610426565b610d4c90610501565b610d56898961050e565b610d5f90610501565b8a5160609390931b6bffffffffffffffffffffffff191687840190815260e092831b6001600160e01b031990811660148301529190921b1660188201528190601c0103601f1981018252610db390826105f7565b610dbc90610a37565b63ffffffff1916600090815260026020526040902055610ddb91610426565b01610de59061056a565b91610df08482610426565b610df990610501565b93610e039161050e565b610e0c90610501565b93516001600160a01b0392909216825263ffffffff928316602083015291909216604083015260608201527f25684e2429888ffe4bab7bb1312633fabe39dc212f7a0399a0534d1b95b030eb90608090a190565b610e809150843d8611610e86575b610e7881836105f7565b810190610664565b38610be7565b503d610e6e565b6108b1565b909150610eb4610b5a88610b42610ead82610b42888c610426565b9589610434565b9116148938610b7f565b9150610ece87610b428388610434565b82610ee0610b5a8a610b42868b610454565b91161491610b79565b9050610ef8610abb8888610434565b90610f09610ad5610abb878c61050e565b91161438610b25565b610f339394955091610f2d610abb610abb93610ad595610426565b95610426565b9116148983878b8b610af3565b50610aab600a89610f518888610454565b0135149050610aa2565b50610a8c600889610f6c8888610434565b0135149050610a83565b80516008101561042f576101200190565b8051600b101561042f576101800190565b805182101561042f5760209160051b010190565b15610fb357565b60405162461bcd60e51b815260206004820152601460248201527334b73b30b634b210313637b1b590373ab6b132b960611b6044820152606490fd5b908251926020918282019485200361111d57611009611156565b505160405190611018826105d6565b815281810193845261102981611199565b156100c4576110379061121f565b9061104182610628565b9361104f60405195866105f7565b828552601f1961105e84610628565b018260005b82811061110757505050611081905161107b81611307565b9061117d565b6000905b8382106110bf5750505050816110ba6110ac9263ffffffff6110b26110ac61050b97610f76565b516111c0565b911614610fac565b610f87565b6110fb816110cf61110193611281565b906110d8610619565b82815281878201526110ea868b610f98565b526110f5858a610f98565b5061117d565b9161118a565b90611085565b61110f611156565b82828a010152018390611063565b60405162461bcd60e51b81526004810183905260116024820152700d2dcecc2d8d2c840c4d8dec6d6d0c2e6d607b1b6044820152606490fd5b60405190611163826105d6565b60006020838281520152565b90600182018092116109d357565b919082018092116109d357565b60001981146109d35760010190565b8051156111ba57602060c09101515160001a106111b557600190565b600090565b50600090565b80518015159081611213575b50156100c45760208101906111e18251611307565b9151908282018092116109d357519182039182116109d357519060208110611207575090565b6020036101000a900490565b602191501115386111cc565b8051156111ba576000906020810190815161123981611307565b81018091116109d3579151905181018091116109d35791905b82811061125f5750905090565b61126881611281565b81018091116109d35761127b909161118a565b90611252565b805160001a906080821015611297575050600190565b60b88210156112b257506112ad61050b916109d8565b61116f565b9060c08110156112d65760b51991600160b783602003016101000a91015104010190565b9060f88210156112ed57506112ad61050b916109c4565b60010151602082900360f7016101000a90040160f5190190565b5160001a608081101561131a5750600090565b60b881108015611351575b156113305750600190565b60c0811015611345576112ad61050b916109f6565b6112ad61050b916109e7565b5060c08110158015611325575060f88110611325565b9190926001600160701b03809316918215610a325763ffffffff84921690039316041602019056fea2646970667358221220097f1454aebe0d98af2528f0934acc6da32a45b1dbee604dca5054cbcbdf6b0b64736f6c63430008130033",
    "linkReferences": {}
  },
  "methodIdentifiers": {
    "axiomQueryAddress()": "3ba7c59a",
    "calculateUniswapV2Twap((uint32,address,uint256,uint256,uint32,bytes32[6])[],(uint32,bytes32,uint32,bytes32[6])[],bytes[2],bytes32[3])": "b992b00d",
    "owner()": "8da5cb5b",
    "renounceOwnership()": "715018a6",
    "transferOwnership(address)": "f2fde38b",
    "twapPris(bytes28)": "bdd1b118",
    "updateAxiomQueryAddress(address)": "3cc79221"
  },
  "id": 39
}