{
  "abi": [
    {
      "inputs": [
        {
          "internalType": "address",
          "name": "_axiomAddress",
          "type": "address"
        },
        {
          "internalType": "address",
          "name": "_verifierAddress",
          "type": "address"
        }
      ],
      "stateMutability": "nonpayable",
      "type": "constructor"
    },
    {
      "anonymous": false,
      "inputs": [
        {
          "indexed": true,
          "internalType": "address",
          "name": "previousOwner",
          "type": "address"
        },
        {
          "indexed": true,
          "internalType": "address",
          "name": "newOwner",
          "type": "address"
        }
      ],
      "name": "OwnershipTransferred",
      "type": "event"
    },
    {
      "anonymous": false,
      "inputs": [
        {
          "indexed": false,
          "internalType": "address",
          "name": "pairAddress",
          "type": "address"
        },
        {
          "indexed": false,
          "internalType": "uint32",
          "name": "startBlockNumber",
          "type": "uint32"
        },
        {
          "indexed": false,
          "internalType": "uint32",
          "name": "endBlockNumber",
          "type": "uint32"
        },
        {
          "indexed": false,
          "internalType": "uint256",
          "name": "twapPri",
          "type": "uint256"
        }
      ],
      "name": "UniswapV2TwapProof",
      "type": "event"
    },
    {
      "anonymous": false,
      "inputs": [
        {
          "indexed": false,
          "internalType": "address",
          "name": "newAddress",
          "type": "address"
        }
      ],
      "name": "UpdateAxiomAddress",
      "type": "event"
    },
    {
      "anonymous": false,
      "inputs": [
        {
          "indexed": false,
          "internalType": "address",
          "name": "newAddress",
          "type": "address"
        }
      ],
      "name": "UpdateSnarkVerifierAddress",
      "type": "event"
    },
    {
      "inputs": [],
      "name": "VERSION",
      "outputs": [
        {
          "internalType": "string",
          "name": "",
          "type": "string"
        }
      ],
      "stateMutability": "view",
      "type": "function"
    },
    {
      "inputs": [],
      "name": "axiomAddress",
      "outputs": [
        {
          "internalType": "address",
          "name": "",
          "type": "address"
        }
      ],
      "stateMutability": "view",
      "type": "function"
    },
    {
      "inputs": [],
      "name": "owner",
      "outputs": [
        {
          "internalType": "address",
          "name": "",
          "type": "address"
        }
      ],
      "stateMutability": "view",
      "type": "function"
    },
    {
      "inputs": [],
      "name": "renounceOwnership",
      "outputs": [],
      "stateMutability": "nonpayable",
      "type": "function"
    },
    {
      "inputs": [
        {
          "internalType": "address",
          "name": "newOwner",
          "type": "address"
        }
      ],
      "name": "transferOwnership",
      "outputs": [],
      "stateMutability": "nonpayable",
      "type": "function"
    },
    {
      "inputs": [
        {
          "internalType": "bytes28",
          "name": "",
          "type": "bytes28"
        }
      ],
      "name": "twapPris",
      "outputs": [
        {
          "internalType": "uint256",
          "name": "",
          "type": "uint256"
        }
      ],
      "stateMutability": "view",
      "type": "function"
    },
    {
      "inputs": [
        {
          "internalType": "address",
          "name": "_axiomAddress",
          "type": "address"
        }
      ],
      "name": "updateAxiomAddress",
      "outputs": [],
      "stateMutability": "nonpayable",
      "type": "function"
    },
    {
      "inputs": [
        {
          "internalType": "address",
          "name": "_verifierAddress",
          "type": "address"
        }
      ],
      "name": "updateSnarkVerifierAddress",
      "outputs": [],
      "stateMutability": "nonpayable",
      "type": "function"
    },
    {
      "inputs": [],
      "name": "verifierAddress",
      "outputs": [
        {
          "internalType": "address",
          "name": "",
          "type": "address"
        }
      ],
      "stateMutability": "view",
      "type": "function"
    },
    {
      "inputs": [
        {
          "components": [
            {
              "internalType": "uint32",
              "name": "blockNumber",
              "type": "uint32"
            },
            {
              "internalType": "bytes32",
              "name": "claimedBlockHash",
              "type": "bytes32"
            },
            {
              "internalType": "bytes32",
              "name": "prevHash",
              "type": "bytes32"
            },
            {
              "internalType": "uint32",
              "name": "numFinal",
              "type": "uint32"
            },
            {
              "internalType": "bytes32[10]",
              "name": "merkleProof",
              "type": "bytes32[10]"
            }
          ],
          "internalType": "struct IAxiomV0.BlockHashWitness",
          "name": "startBlock",
          "type": "tuple"
        },
        {
          "components": [
            {
              "internalType": "uint32",
              "name": "blockNumber",
              "type": "uint32"
            },
            {
              "internalType": "bytes32",
              "name": "claimedBlockHash",
              "type": "bytes32"
            },
            {
              "internalType": "bytes32",
              "name": "prevHash",
              "type": "bytes32"
            },
            {
              "internalType": "uint32",
              "name": "numFinal",
              "type": "uint32"
            },
            {
              "internalType": "bytes32[10]",
              "name": "merkleProof",
              "type": "bytes32[10]"
            }
          ],
          "internalType": "struct IAxiomV0.BlockHashWitness",
          "name": "endBlock",
          "type": "tuple"
        },
        {
          "internalType": "bytes",
          "name": "proof",
          "type": "bytes"
        }
      ],
      "name": "verifyUniswapV2Twap",
      "outputs": [
        {
          "internalType": "uint256",
          "name": "",
          "type": "uint256"
        }
      ],
      "stateMutability": "nonpayable",
      "type": "function"
    }
  ],
  "bytecode": {
    "object": "0x6080346100c357601f610e9e38819003918201601f19168301916001600160401b038311848410176100c85780849260409485528339810103126100c357610052602061004b836100de565b92016100de565b60008054336001600160a01b0319808316821784556040519590946001600160a01b03949093859391908416907f8be0079c531659141344cd1fd0a4f28419497f9722a3daafe3b4186f6b6457e09080a31683600154161760015516906002541617600255610dab90816100f38239f35b600080fd5b634e487b7160e01b600052604160045260246000fd5b51906001600160a01b03821682036100c35756fe608080604052600436101561001357600080fd5b60003560e01c90816318bdffbb14610c3157508063528bad3714610c08578063715018a614610baf578063774a623414610b425780638da5cb5b14610b19578063a56fa9a214610aac578063accede1f14610217578063bdd1b118146101dc578063f2fde38b146101115763ffa1ad741461008d57600080fd5b3461010c57600036600319011261010c576040516100aa81610c55565b600381526020906218171960e91b82820152604051828193825282519081818401526000935b8285106100f3575050604092506000838284010152601f80199101168101030190f35b84810182015186860160400152938101938593506100d0565b600080fd5b3461010c57602036600319011261010c576004356001600160a01b038181169182900361010c57610140610c93565b811561018857600054826bffffffffffffffffffffffff60a01b821617600055167f8be0079c531659141344cd1fd0a4f28419497f9722a3daafe3b4186f6b6457e0600080a3005b60405162461bcd60e51b815260206004820152602660248201527f4f776e61626c653a206e6577206f776e657220697320746865207a65726f206160448201526564647265737360d01b6064820152608490fd5b3461010c57602036600319011261010c5760043563ffffffff19811680910361010c5760005260036020526020604060002054604051908152f35b3461010c5736600319016103a0811261010c576101c080911261010c57366101c319011261010c5767ffffffffffffffff610384351161010c573660236103843501121561010c5767ffffffffffffffff61038435600401351161010c5736602461038435600401356103843501011161010c5760405160c0810181811067ffffffffffffffff821117610691576040526000815260006020820152600060408201526000606082015260006080820152600060a082015260405160c0810181811067ffffffffffffffff8211176106915760405260c036823760006101805b60068210610a6e57505060018060a01b03815160401c16825263ffffffff815160201c1680602084015260a063ffffffff83511692836040860152602081015160801b6fffffffffffffffffffffffffffffffff9081604084015116176060870152606082015160801b90608083015116176080860152015160a084015211610a1e5763ffffffff60208201511663ffffffff610392610ceb565b16036109bd5763ffffffff60408201511663ffffffff6103b0610cfe565b1603610960576060810151602435036108fc5760808101516101e4350361089c5760043563ffffffff8116810361010c574363ffffffff82164303116107b85761010063ffffffff82164303116107ed576001546040516360fbe57160e11b815263ffffffff9290921660048301526024803590830152602090829060449082906001600160a01b03165afa9081156106f8576000916107ce575b50156106ac575b6101c43563ffffffff8116810361010c574363ffffffff82164303116107b85761010063ffffffff8216430311610704576001546040516360fbe57160e11b815263ffffffff9290921660048301526101e4356024830152602090829060449082906001600160a01b03165afa9081156106f8576000916106c9575b50156106ac575b60008060018060a01b0360025416604051610384356004013560246103843501823782816103843560040135810182815203925af13d156106a7573d67ffffffffffffffff81116106915760405190610538601f8201601f191660200183610c71565b8152600060203d92013e5b1561064c5760a08181602093015181518483015160408401519060405191878301936bffffffffffffffffffffffff199060601b16845263ffffffff60e01b809260e01b16603484015260e01b166038820152601c81526105a381610c55565b51905163ffffffff1991829182811691601c8110610636575b5050905016600052600384526040600020557f25684e2429888ffe4bab7bb1312633fabe39dc212f7a0399a0534d1b95b030eb6080600180851b03835116610602610ceb565b63ffffffff61060f610cfe565b81888801519360405195865216898501521660408301526060820152a10151604051908152f35b83919250601c0360031b1b1616819087806105bc565b60405162461bcd60e51b815260206004820152601960248201527f50726f6f6620766572696669636174696f6e206661696c6564000000000000006044820152606490fd5b634e487b7160e01b600052604160045260246000fd5b610543565b60405162461bcd60e51b8152806106c560048201610d2a565b0390fd5b6106eb915060203d6020116106f1575b6106e38183610c71565b810190610d12565b826104ce565b503d6106d9565b6040513d6000823e3d90fd5b60018060a01b036001541663ffffffff60405192636f193b8360e01b84521660048301526101e43560248301526102043560448301526102243563ffffffff8116810361010c576101c48360209363ffffffff829416606483015261014061024460848401375afa9081156106f857600091610799575b506104d55760405162461bcd60e51b8152806106c560048201610d2a565b6107b2915060203d6020116106f1576106e38183610c71565b8261077b565b634e487b7160e01b600052601160045260246000fd5b6107e7915060203d6020116106f1576106e38183610c71565b8261044b565b60018060a01b036001541663ffffffff60405192636f193b8360e01b84521660048301526024356024830152604435604483015260643563ffffffff8116810361010c576101c48360209363ffffffff82941660648301526101406084808401375afa9081156106f85760009161087d575b506104525760405162461bcd60e51b8152806106c560048201610d2a565b610896915060203d6020116106f1576106e38183610c71565b8261085f565b60405162461bcd60e51b815260206004820152603260248201527f696e7374616e63652e656e64426c6f636b4861736820213d20656e64426c6f636044820152710d65cc6d8c2d2dacac884d8dec6d690c2e6d60731b6064820152608490fd5b60405162461bcd60e51b815260206004820152603660248201527f696e7374616e63652e7374617274426c6f636b4861736820213d207374617274604482015275084d8dec6d65cc6d8c2d2dacac884d8dec6d690c2e6d60531b6064820152608490fd5b60405162461bcd60e51b815260206004820152602f60248201527f696e7374616e63652e656e64426c6f636b4e756d62657220213d20656e64426c60448201526e37b1b597313637b1b5a73ab6b132b960891b6064820152608490fd5b60405162461bcd60e51b815260206004820152603360248201527f696e7374616e63652e7374617274426c6f636b4e756d62657220213d20737461604482015272393a213637b1b597313637b1b5a73ab6b132b960691b6064820152608490fd5b60405162461bcd60e51b815260206004820152602260248201527f7374617274426c6f636b4e756d626572203c3d20656e64426c6f636b4e756d6260448201526132b960f11b6064820152608490fd5b60208101908181116107b8576103843560040135821161010c57610384350160240135600583901b8401529060001981146107b857600101906102f7565b3461010c57602036600319011261010c576004356001600160a01b0381169081900361010c5760207fdcc09f615b7ca32bcaf36101ecd4616ec6bf6a357280cf777bff0fc63f5c8f4f91610afe610c93565b600280546001600160a01b03191682179055604051908152a1005b3461010c57600036600319011261010c576000546040516001600160a01b039091168152602090f35b3461010c57602036600319011261010c576004356001600160a01b0381169081900361010c5760207f4f58839d9075210378ad47340fc23fab81e060f9fb13f00151841b25bc23d4b791610b94610c93565b600180546001600160a01b03191682179055604051908152a1005b3461010c57600036600319011261010c57610bc8610c93565b600080546001600160a01b0319811682556001600160a01b03167f8be0079c531659141344cd1fd0a4f28419497f9722a3daafe3b4186f6b6457e08280a3005b3461010c57600036600319011261010c576001546040516001600160a01b039091168152602090f35b3461010c57600036600319011261010c576002546001600160a01b03168152602090f35b6040810190811067ffffffffffffffff82111761069157604052565b90601f8019910116810190811067ffffffffffffffff82111761069157604052565b6000546001600160a01b03163303610ca757565b606460405162461bcd60e51b815260206004820152602060248201527f4f776e61626c653a2063616c6c6572206973206e6f7420746865206f776e65726044820152fd5b60043563ffffffff8116810361010c5790565b6101c43563ffffffff8116810361010c5790565b9081602091031261010c5751801515810361010c5790565b60809060208152602a60208201527f426c6f636b486173685769746e657373206973206e6f742076616c696461746560408201526964206279204178696f6d60b01b6060820152019056fea2646970667358221220bd80f907700009a40dbdf37140678223a444999f097c272ff0914b79855bbb0164736f6c63430008130033",
    "linkReferences": {}
  },
  "methodIdentifiers": {
    "VERSION()": "ffa1ad74",
    "axiomAddress()": "528bad37",
    "owner()": "8da5cb5b",
    "renounceOwnership()": "715018a6",
    "transferOwnership(address)": "f2fde38b",
    "twapPris(bytes28)": "bdd1b118",
    "updateAxiomAddress(address)": "774a6234",
    "updateSnarkVerifierAddress(address)": "a56fa9a2",
    "verifierAddress()": "18bdffbb",
    "verifyUniswapV2Twap((uint32,bytes32,bytes32,uint32,bytes32[10]),(uint32,bytes32,bytes32,uint32,bytes32[10]),bytes)": "accede1f"
  },
  "id": 43
}