{
  "abi": [
    {
      "inputs": [],
      "name": "arithmeticError",
      "outputs": [
        {
          "internalType": "bytes",
          "name": "",
          "type": "bytes"
        }
      ],
      "stateMutability": "view",
      "type": "function"
    },
    {
      "inputs": [],
      "name": "assertionError",
      "outputs": [
        {
          "internalType": "bytes",
          "name": "",
          "type": "bytes"
        }
      ],
      "stateMutability": "view",
      "type": "function"
    },
    {
      "inputs": [],
      "name": "divisionError",
      "outputs": [
        {
          "internalType": "bytes",
          "name": "",
          "type": "bytes"
        }
      ],
      "stateMutability": "view",
      "type": "function"
    },
    {
      "inputs": [],
      "name": "encodeStorageError",
      "outputs": [
        {
          "internalType": "bytes",
          "name": "",
          "type": "bytes"
        }
      ],
      "stateMutability": "view",
      "type": "function"
    },
    {
      "inputs": [],
      "name": "enumConversionError",
      "outputs": [
        {
          "internalType": "bytes",
          "name": "",
          "type": "bytes"
        }
      ],
      "stateMutability": "view",
      "type": "function"
    },
    {
      "inputs": [],
      "name": "indexOOBError",
      "outputs": [
        {
          "internalType": "bytes",
          "name": "",
          "type": "bytes"
        }
      ],
      "stateMutability": "view",
      "type": "function"
    },
    {
      "inputs": [],
      "name": "memOverflowError",
      "outputs": [
        {
          "internalType": "bytes",
          "name": "",
          "type": "bytes"
        }
      ],
      "stateMutability": "view",
      "type": "function"
    },
    {
      "inputs": [],
      "name": "popError",
      "outputs": [
        {
          "internalType": "bytes",
          "name": "",
          "type": "bytes"
        }
      ],
      "stateMutability": "view",
      "type": "function"
    },
    {
      "inputs": [],
      "name": "zeroVarError",
      "outputs": [
        {
          "internalType": "bytes",
          "name": "",
          "type": "bytes"
        }
      ],
      "stateMutability": "view",
      "type": "function"
    }
  ],
  "bytecode": {
    "object": "0x6080806040523461001a5761031f9081610020823930815050f35b600080fdfe60806040818152600436101561001457600080fd5b600091823560e01c90816305ee8612146102365750806310332977146102025780631de45560146101ce5780638995290f1461019a578063986c5f6814610166578063b22dc54d14610132578063b67689da146100fe578063d160e4de146100ca5763fa784a441461008557600080fd5b816003193601126100c657806100c2915190634e487b7160e01b602083015260126024830152602482526100b88261026e565b51918291826102a0565b0390f35b5080fd5b50816003193601126100c657806100c2915190634e487b7160e01b602083015260226024830152602482526100b88261026e565b50816003193601126100c657806100c2915190634e487b7160e01b602083015260516024830152602482526100b88261026e565b50816003193601126100c657806100c2915190634e487b7160e01b602083015260316024830152602482526100b88261026e565b50816003193601126100c657806100c2915190634e487b7160e01b602083015260416024830152602482526100b88261026e565b50816003193601126100c657806100c2915190634e487b7160e01b602083015260116024830152602482526100b88261026e565b50816003193601126100c657806100c2915190634e487b7160e01b602083015260216024830152602482526100b88261026e565b50816003193601126100c657806100c2915190634e487b7160e01b602083015260016024830152602482526100b88261026e565b9190508260031936011261026a576100c29250634e487b7160e01b602083015260326024830152602482526100b88261026e565b8280fd5b6060810190811067ffffffffffffffff82111761028a57604052565b634e487b7160e01b600052604160045260246000fd5b6020808252825181830181905290939260005b8281106102d557505060409293506000838284010152601f8019910116010190565b8181018601518482016040015285016102b356fea264697066735822122014c83452af4875850e2980505657f4d6ba198e9de0dc770775ca0c48e8dd638264736f6c63430008130033",
    "linkReferences": {}
  },
  "methodIdentifiers": {
    "arithmeticError()": "8995290f",
    "assertionError()": "10332977",
    "divisionError()": "fa784a44",
    "encodeStorageError()": "d160e4de",
    "enumConversionError()": "1de45560",
    "indexOOBError()": "05ee8612",
    "memOverflowError()": "986c5f68",
    "popError()": "b22dc54d",
    "zeroVarError()": "b67689da"
  },
  "id": 29
}